{
  "contractName": "EthrDIDRegistry",
  "abi": [
    {
      "anonymous": false,
      "inputs": [
        {
          "indexed": true,
          "internalType": "address",
          "name": "identity",
          "type": "address"
        },
        {
          "indexed": false,
          "internalType": "bytes32",
          "name": "name",
          "type": "bytes32"
        },
        {
          "indexed": false,
          "internalType": "bytes",
          "name": "value",
          "type": "bytes"
        },
        {
          "indexed": false,
          "internalType": "uint256",
          "name": "validTo",
          "type": "uint256"
        },
        {
          "indexed": false,
          "internalType": "uint256",
          "name": "previousChange",
          "type": "uint256"
        }
      ],
      "name": "DIDAttributeChanged",
      "type": "event"
    },
    {
      "anonymous": false,
      "inputs": [
        {
          "indexed": true,
          "internalType": "address",
          "name": "identity",
          "type": "address"
        },
        {
          "indexed": false,
          "internalType": "bytes32",
          "name": "delegateType",
          "type": "bytes32"
        },
        {
          "indexed": false,
          "internalType": "address",
          "name": "delegate",
          "type": "address"
        },
        {
          "indexed": false,
          "internalType": "uint256",
          "name": "validTo",
          "type": "uint256"
        },
        {
          "indexed": false,
          "internalType": "uint256",
          "name": "previousChange",
          "type": "uint256"
        }
      ],
      "name": "DIDDelegateChanged",
      "type": "event"
    },
    {
      "anonymous": false,
      "inputs": [
        {
          "indexed": true,
          "internalType": "address",
          "name": "identity",
          "type": "address"
        },
        {
          "indexed": false,
          "internalType": "address",
          "name": "owner",
          "type": "address"
        },
        {
          "indexed": false,
          "internalType": "uint256",
          "name": "previousChange",
          "type": "uint256"
        }
      ],
      "name": "DIDOwnerChanged",
      "type": "event"
    },
    {
      "inputs": [
        {
          "internalType": "address",
          "name": "",
          "type": "address"
        }
      ],
      "name": "changed",
      "outputs": [
        {
          "internalType": "uint256",
          "name": "",
          "type": "uint256"
        }
      ],
      "stateMutability": "view",
      "type": "function"
    },
    {
      "inputs": [
        {
          "internalType": "address",
          "name": "",
          "type": "address"
        },
        {
          "internalType": "bytes32",
          "name": "",
          "type": "bytes32"
        },
        {
          "internalType": "address",
          "name": "",
          "type": "address"
        }
      ],
      "name": "delegates",
      "outputs": [
        {
          "internalType": "uint256",
          "name": "",
          "type": "uint256"
        }
      ],
      "stateMutability": "view",
      "type": "function"
    },
    {
      "inputs": [
        {
          "internalType": "address",
          "name": "",
          "type": "address"
        }
      ],
      "name": "nonce",
      "outputs": [
        {
          "internalType": "uint256",
          "name": "",
          "type": "uint256"
        }
      ],
      "stateMutability": "view",
      "type": "function"
    },
    {
      "inputs": [
        {
          "internalType": "address",
          "name": "",
          "type": "address"
        }
      ],
      "name": "owners",
      "outputs": [
        {
          "internalType": "address",
          "name": "",
          "type": "address"
        }
      ],
      "stateMutability": "view",
      "type": "function"
    },
    {
      "inputs": [
        {
          "internalType": "address",
          "name": "identity",
          "type": "address"
        }
      ],
      "name": "identityOwner",
      "outputs": [
        {
          "internalType": "address",
          "name": "",
          "type": "address"
        }
      ],
      "stateMutability": "view",
      "type": "function"
    },
    {
      "inputs": [
        {
          "internalType": "address",
          "name": "identity",
          "type": "address"
        },
        {
          "internalType": "address",
          "name": "newOwner",
          "type": "address"
        }
      ],
      "name": "changeOwner",
      "outputs": [],
      "stateMutability": "nonpayable",
      "type": "function"
    },
    {
      "inputs": [
        {
          "internalType": "address",
          "name": "identity",
          "type": "address"
        },
        {
          "internalType": "uint8",
          "name": "sigV",
          "type": "uint8"
        },
        {
          "internalType": "bytes32",
          "name": "sigR",
          "type": "bytes32"
        },
        {
          "internalType": "bytes32",
          "name": "sigS",
          "type": "bytes32"
        },
        {
          "internalType": "address",
          "name": "newOwner",
          "type": "address"
        }
      ],
      "name": "changeOwnerSigned",
      "outputs": [],
      "stateMutability": "nonpayable",
      "type": "function"
    },
    {
      "inputs": [
        {
          "internalType": "address",
          "name": "identity",
          "type": "address"
        },
        {
          "internalType": "bytes32",
          "name": "delegateType",
          "type": "bytes32"
        },
        {
          "internalType": "address",
          "name": "delegate",
          "type": "address"
        },
        {
          "internalType": "uint256",
          "name": "validity",
          "type": "uint256"
        }
      ],
      "name": "addDelegate",
      "outputs": [],
      "stateMutability": "nonpayable",
      "type": "function"
    },
    {
      "inputs": [
        {
          "internalType": "address",
          "name": "identity",
          "type": "address"
        },
        {
          "internalType": "bytes32",
          "name": "delegateType",
          "type": "bytes32"
        },
        {
          "internalType": "address",
          "name": "delegate",
          "type": "address"
        }
      ],
      "name": "revokeDelegate",
      "outputs": [],
      "stateMutability": "nonpayable",
      "type": "function"
    },
    {
      "inputs": [
        {
          "internalType": "address",
          "name": "identity",
          "type": "address"
        },
        {
          "internalType": "bytes32",
          "name": "delegateType",
          "type": "bytes32"
        },
        {
          "internalType": "address",
          "name": "delegate",
          "type": "address"
        }
      ],
      "name": "validDelegate",
      "outputs": [
        {
          "internalType": "bool",
          "name": "",
          "type": "bool"
        }
      ],
      "stateMutability": "view",
      "type": "function"
    },
    {
      "inputs": [
        {
          "internalType": "address",
          "name": "identity",
          "type": "address"
        },
        {
          "internalType": "bytes32",
          "name": "name",
          "type": "bytes32"
        },
        {
          "internalType": "bytes",
          "name": "value",
          "type": "bytes"
        },
        {
          "internalType": "uint256",
          "name": "validity",
          "type": "uint256"
        }
      ],
      "name": "setAttribute",
      "outputs": [],
      "stateMutability": "nonpayable",
      "type": "function"
    },
    {
      "inputs": [
        {
          "internalType": "address",
          "name": "identity",
          "type": "address"
        },
        {
          "internalType": "bytes32",
          "name": "name",
          "type": "bytes32"
        },
        {
          "internalType": "bytes",
          "name": "value",
          "type": "bytes"
        }
      ],
      "name": "revokeAttribute",
      "outputs": [],
      "stateMutability": "nonpayable",
      "type": "function"
    },
    {
      "inputs": [
        {
          "internalType": "address",
          "name": "identity",
          "type": "address"
        },
        {
          "internalType": "uint8",
          "name": "sigV",
          "type": "uint8"
        },
        {
          "internalType": "bytes32",
          "name": "sigR",
          "type": "bytes32"
        },
        {
          "internalType": "bytes32",
          "name": "sigS",
          "type": "bytes32"
        },
        {
          "internalType": "bytes32",
          "name": "name",
          "type": "bytes32"
        },
        {
          "internalType": "bytes",
          "name": "value",
          "type": "bytes"
        },
        {
          "internalType": "uint256",
          "name": "validity",
          "type": "uint256"
        }
      ],
      "name": "setAttributeSigned",
      "outputs": [],
      "stateMutability": "nonpayable",
      "type": "function"
    }
  ],
  "bytecode": "0x608060405234801561001057600080fd5b50610f31806100206000396000f3fe608060405234801561001057600080fd5b50600436106100ce5760003560e01c806370ae92d21161008c5780638733d4e8116100665780638733d4e81461022c578063a7068d661461023f578063f00d4b5d14610252578063f96d0f9f1461026557600080fd5b806370ae92d2146101e65780637ad4b0a41461020657806380b29f7c1461021957600080fd5b8062c023da146100d3578063022914a7146100e85780630d44625b1461012e578063123b5e981461016d578063240cf1fa14610180578063622b2a3c14610193575b600080fd5b6100e66100e1366004610b0c565b610285565b005b6101116100f6366004610b63565b6000602081905290815260409020546001600160a01b031681565b6040516001600160a01b0390911681526020015b60405180910390f35b61015f61013c366004610b85565b600160209081526000938452604080852082529284528284209052825290205481565b604051908152602001610125565b6100e661017b366004610bd2565b61033c565b6100e661018e366004610c57565b610511565b6101d66101a1366004610b85565b6001600160a01b0392831660009081526001602090815260408083209483529381528382209290941681529252902054421090565b6040519015158152602001610125565b61015f6101f4366004610b63565b60036020526000908152604090205481565b6100e6610214366004610cae565b610734565b6100e6610227366004610b85565b610795565b61011161023a366004610b63565b610852565b6100e661024d366004610d0d565b610882565b6100e6610260366004610d51565b610988565b61015f610273366004610b63565b60026020526000908152604090205481565b8261028f81610852565b6001600160a01b0316336001600160a01b0316146102c85760405162461bcd60e51b81526004016102bf90610d84565b60405180910390fd5b6001600160a01b0384166000818152600260205260408082205490517f18ab6b2ae3d64306c00ce663125f2bd680e441a098de1635bd7ad8b0d44965e49261031592889288929190610dfc565b60405180910390a25050506001600160a01b03166000908152600260205260409020439055565b6000601960f81b81306003826103518d610852565b6001600160a01b03166001600160a01b03168152602001908152602001600020548b88888860405160200161038d989796959493929190610e28565b60408051601f198184030181528282528051602091820120600080855291840180845281905260ff8b169284019290925260608301899052608083018890529092509060019060a0016020604051602081039080840390855afa1580156103f8573d6000803e3d6000fd5b50505060206040510351905061040d89610852565b6001600160a01b0316816001600160a01b0316146104615760405162461bcd60e51b8152602060048201526011602482015270496e76616c6964207369676e617475726560781b60448201526064016102bf565b6001600160a01b0389167f18ab6b2ae3d64306c00ce663125f2bd680e441a098de1635bd7ad8b0d44965e486866104988742610ec9565b6001600160a01b038e16600090815260026020526040908190205490516104c29493929190610dfc565b60405180910390a26001600160a01b03808a16600090815260026020908152604080832043905592841682526003905290812080549161050183610ee2565b9190505550505050505050505050565b6000601960f81b81306003826105268b610852565b6001600160a01b0316815260208082019290925260409081016000205490516001600160f81b031995861692810192909252929093166021840152606090811b6bffffffffffffffffffffffff199081166022850152603684019290925288811b821660568401526a31b430b733b2a7bbb732b960a91b606a84015284901b16607582015260890160408051601f198184030181528282528051602091820120600080855291840180845281905260ff89169284019290925260608301879052608083018690529092509060019060a0016020604051602081039080840390855afa158015610619573d6000803e3d6000fd5b50505060206040510351905061062e87610852565b6001600160a01b0316816001600160a01b0316146106825760405162461bcd60e51b8152602060048201526011602482015270496e76616c6964207369676e617475726560781b60448201526064016102bf565b6001600160a01b0387811660008181526020818152604080832080546001600160a01b031916958916958617905560028252918290205482519485529084015290917f38a5a6e68f30ed1ab45860a4afb34bcb2fc00f22ca462d249b8a8d40cda6f7a3910160405180910390a26001600160a01b03808816600090815260026020908152604080832043905592841682526003905290812080549161072683610ee2565b919050555050505050505050565b6001600160a01b0384167f18ab6b2ae3d64306c00ce663125f2bd680e441a098de1635bd7ad8b0d44965e4848461076b8542610ec9565b6001600160a01b038916600090815260026020526040908190205490516103159493929190610dfc565b8261079f81610852565b6001600160a01b0316336001600160a01b0316146107cf5760405162461bcd60e51b81526004016102bf90610d84565b6001600160a01b038481166000818152600160209081526040808320888452825280832094871680845294825280832083905583835260028252808320548151898152928301959095528101919091526060810192909252907f5a5084339536bcab65f20799fcc58724588145ca054bd2be626174b27ba156f790608001610315565b6001600160a01b03808216600090815260208190526040812054909116801561087b5792915050565b5090919050565b8361088c81610852565b6001600160a01b0316336001600160a01b0316146108bc5760405162461bcd60e51b81526004016102bf90610d84565b6108c68242610ec9565b6001600160a01b0380871660008181526001602090815260408083208a84528252808320948916835293905291909120919091557f5a5084339536bcab65f20799fcc58724588145ca054bd2be626174b27ba156f785856109278642610ec9565b6001600160a01b038a81166000908152600260209081526040918290205482519687529490921691850191909152830152606082015260800160405180910390a2505050506001600160a01b03166000908152600260205260409020439055565b8161099281610852565b6001600160a01b0316336001600160a01b0316146109c25760405162461bcd60e51b81526004016102bf90610d84565b6001600160a01b0383811660008181526020818152604080832080546001600160a01b031916958816958617905560028252918290205482519485529084015290917f38a5a6e68f30ed1ab45860a4afb34bcb2fc00f22ca462d249b8a8d40cda6f7a3910160405180910390a250506001600160a01b03166000908152600260205260409020439055565b80356001600160a01b0381168114610a6457600080fd5b919050565b634e487b7160e01b600052604160045260246000fd5b600082601f830112610a9057600080fd5b813567ffffffffffffffff80821115610aab57610aab610a69565b604051601f8301601f19908116603f01168101908282118183101715610ad357610ad3610a69565b81604052838152866020858801011115610aec57600080fd5b836020870160208301376000602085830101528094505050505092915050565b600080600060608486031215610b2157600080fd5b610b2a84610a4d565b925060208401359150604084013567ffffffffffffffff811115610b4d57600080fd5b610b5986828701610a7f565b9150509250925092565b600060208284031215610b7557600080fd5b610b7e82610a4d565b9392505050565b600080600060608486031215610b9a57600080fd5b610ba384610a4d565b925060208401359150610bb860408501610a4d565b90509250925092565b803560ff81168114610a6457600080fd5b600080600080600080600060e0888a031215610bed57600080fd5b610bf688610a4d565b9650610c0460208901610bc1565b955060408801359450606088013593506080880135925060a088013567ffffffffffffffff811115610c3557600080fd5b610c418a828b01610a7f565b92505060c0880135905092959891949750929550565b600080600080600060a08688031215610c6f57600080fd5b610c7886610a4d565b9450610c8660208701610bc1565b93506040860135925060608601359150610ca260808701610a4d565b90509295509295909350565b60008060008060808587031215610cc457600080fd5b610ccd85610a4d565b935060208501359250604085013567ffffffffffffffff811115610cf057600080fd5b610cfc87828801610a7f565b949793965093946060013593505050565b60008060008060808587031215610d2357600080fd5b610d2c85610a4d565b935060208501359250610d4160408601610a4d565b9396929550929360600135925050565b60008060408385031215610d6457600080fd5b610d6d83610a4d565b9150610d7b60208401610a4d565b90509250929050565b6020808252600e908201526d139bdd08185d5d1a1bdc9a5e995960921b604082015260600190565b60005b83811015610dc7578181015183820152602001610daf565b50506000910152565b60008151808452610de8816020860160208601610dac565b601f01601f19169290920160200192915050565b848152608060208201526000610e156080830186610dd0565b6040830194909452506060015292915050565b6001600160f81b03198981168252881660018201526bffffffffffffffffffffffff19606088811b821660028401526016830188905286901b1660368201526b73657441747472696275746560a01b604a820152605681018490528251600090610e99816076850160208801610dac565b607692019182019290925260960198975050505050505050565b634e487b7160e01b600052601160045260246000fd5b80820180821115610edc57610edc610eb3565b92915050565b600060018201610ef457610ef4610eb3565b506001019056fea2646970667358221220823de5561705ce358b5868e39d4548f376c690df267c5e834cfd80671c3de0b664736f6c63430008130033",
  "immutableReferences": {},
  "source": "// SPDX-License-Identifier: MIT\npragma solidity ^0.8.19;\n\n/**\n * @title EthrDIDRegistry\n * @dev ERC-1056 compliant DID registry\n * \n * KEY PRINCIPLES:\n * 1. setAttribute is PUBLIC - anyone can add attributes for any DID\n * 2. Only identity owner can change ownership or revoke attributes\n * 3. This allows third parties to vouch for/attest to identities\n * 4. Follows the \"anyone can write, but it's signed\" model\n */\ncontract EthrDIDRegistry {\n    \n    mapping(address => address) public owners;\n    mapping(address => mapping(bytes32 => mapping(address => uint))) public delegates;\n    mapping(address => uint) public changed;\n    mapping(address => uint) public nonce;\n\n    event DIDOwnerChanged(\n        address indexed identity,\n        address owner,\n        uint previousChange\n    );\n\n    event DIDDelegateChanged(\n        address indexed identity,\n        bytes32 delegateType,\n        address delegate,\n        uint validTo,\n        uint previousChange\n    );\n\n    event DIDAttributeChanged(\n        address indexed identity,\n        bytes32 name,\n        bytes value,\n        uint validTo,\n        uint previousChange\n    );\n\n    modifier onlyOwner(address identity) {\n        require(msg.sender == identityOwner(identity), \"Not authorized\");\n        _;\n    }\n\n    /**\n     * @dev Returns the owner of an identity\n     * If no owner is set, the identity itself is the owner\n     */\n    function identityOwner(address identity) public view returns(address) {\n        address owner = owners[identity];\n        if (owner != address(0)) {\n            return owner;\n        }\n        return identity;\n    }\n\n    /**\n     * @dev Change owner of an identity (requires authorization)\n     */\n    function changeOwner(address identity, address newOwner) public onlyOwner(identity) {\n        owners[identity] = newOwner;\n        emit DIDOwnerChanged(identity, newOwner, changed[identity]);\n        changed[identity] = block.number;\n    }\n\n    /**\n     * @dev Change owner via signature (meta-transaction)\n     */\n    function changeOwnerSigned(\n        address identity,\n        uint8 sigV,\n        bytes32 sigR,\n        bytes32 sigS,\n        address newOwner\n    ) public {\n        bytes32 hash = keccak256(\n            abi.encodePacked(\n                bytes1(0x19),\n                bytes1(0),\n                address(this),\n                nonce[identityOwner(identity)],\n                identity,\n                \"changeOwner\",\n                newOwner\n            )\n        );\n        address signer = ecrecover(hash, sigV, sigR, sigS);\n        require(signer == identityOwner(identity), \"Invalid signature\");\n        owners[identity] = newOwner;\n        emit DIDOwnerChanged(identity, newOwner, changed[identity]);\n        changed[identity] = block.number;\n        nonce[signer]++;\n    }\n\n    /**\n     * @dev Add a delegate (requires authorization)\n     */\n    function addDelegate(\n        address identity,\n        bytes32 delegateType,\n        address delegate,\n        uint validity\n    ) public onlyOwner(identity) {\n        delegates[identity][delegateType][delegate] = block.timestamp + validity;\n        emit DIDDelegateChanged(\n            identity,\n            delegateType,\n            delegate,\n            block.timestamp + validity,\n            changed[identity]\n        );\n        changed[identity] = block.number;\n    }\n\n    /**\n     * @dev Revoke a delegate (requires authorization)\n     */\n    function revokeDelegate(\n        address identity,\n        bytes32 delegateType,\n        address delegate\n    ) public onlyOwner(identity) {\n        delegates[identity][delegateType][delegate] = 0;\n        emit DIDDelegateChanged(\n            identity,\n            delegateType,\n            delegate,\n            0,\n            changed[identity]\n        );\n        changed[identity] = block.number;\n    }\n\n    /**\n     * @dev Check if a delegate is valid\n     */\n    function validDelegate(\n        address identity,\n        bytes32 delegateType,\n        address delegate\n    ) public view returns(bool) {\n        uint validity = delegates[identity][delegateType][delegate];\n        return (validity > block.timestamp);\n    }\n\n    /**\n     * @dev Set an attribute for a DID\n     * \n     *  PUBLIC FUNCTION - Anyone can set attributes\n     * \n     * Why this is safe:\n     * - Attributes are just claims/attestations\n     * - Anyone can make a claim about anyone (like Twitter mentions)\n     * - The important part is WHO made the claim (msg.sender is recorded in events)\n     * - Verifiers check if they trust the attribute setter\n     * - Only the identity owner can REVOKE attributes\n     * \n     * Use cases:\n     * - User sets their own public key\n     * - University sets a degree attribute for a student\n     * - Employer sets employment attribute\n     * - Government sets citizenship attribute\n     */\n    function setAttribute(\n        address identity,\n        bytes32 name,\n        bytes memory value,\n        uint validity\n    ) public {\n        emit DIDAttributeChanged(\n            identity,\n            name,\n            value,\n            block.timestamp + validity,\n            changed[identity]\n        );\n        changed[identity] = block.number;\n    }\n\n    /**\n     * @dev Revoke an attribute (requires authorization)\n     * Only the identity owner can revoke their own attributes\n     */\n    function revokeAttribute(\n        address identity,\n        bytes32 name,\n        bytes memory value\n    ) public onlyOwner(identity) {\n        emit DIDAttributeChanged(\n            identity,\n            name,\n            value,\n            0,\n            changed[identity]\n        );\n        changed[identity] = block.number;\n    }\n\n    /**\n     * @dev Set attribute via signature (meta-transaction)\n     * Allows the identity owner to authorize attribute setting via signature\n     * This is useful when the owner wants to set attributes but someone else pays gas\n     */\n    function setAttributeSigned(\n        address identity,\n        uint8 sigV,\n        bytes32 sigR,\n        bytes32 sigS,\n        bytes32 name,\n        bytes memory value,\n        uint validity\n    ) public {\n        bytes32 hash = keccak256(\n            abi.encodePacked(\n                bytes1(0x19),\n                bytes1(0),\n                address(this),\n                nonce[identityOwner(identity)],\n                identity,\n                \"setAttribute\",\n                name,\n                value,\n                validity\n            )\n        );\n        address signer = ecrecover(hash, sigV, sigR, sigS);\n        require(signer == identityOwner(identity), \"Invalid signature\");\n        \n        emit DIDAttributeChanged(\n            identity,\n            name,\n            value,\n            block.timestamp + validity,\n            changed[identity]\n        );\n        changed[identity] = block.number;\n        nonce[signer]++;\n    }\n}",
  "sourcePath": "/home/voltuswave/projects/blockchain/blockchain/truffle/contracts/EthrDIDRegistry.sol",
  "compiler": {
    "name": "solc",
    "version": "0.8.19+commit.7dd6d404.Emscripten.clang"
  },
  "schemaVersion": "3.4.16",
  "updatedAt": "2025-10-30T06:36:53.321Z",
  "networkType": "ethereum",
  "devdoc": {
    "details": "ERC-1056 compliant DID registry  KEY PRINCIPLES: 1. setAttribute is PUBLIC - anyone can add attributes for any DID 2. Only identity owner can change ownership or revoke attributes 3. This allows third parties to vouch for/attest to identities 4. Follows the \"anyone can write, but it's signed\" model",
    "kind": "dev",
    "methods": {
      "addDelegate(address,bytes32,address,uint256)": {
        "details": "Add a delegate (requires authorization)"
      },
      "changeOwner(address,address)": {
        "details": "Change owner of an identity (requires authorization)"
      },
      "changeOwnerSigned(address,uint8,bytes32,bytes32,address)": {
        "details": "Change owner via signature (meta-transaction)"
      },
      "identityOwner(address)": {
        "details": "Returns the owner of an identity If no owner is set, the identity itself is the owner"
      },
      "revokeAttribute(address,bytes32,bytes)": {
        "details": "Revoke an attribute (requires authorization) Only the identity owner can revoke their own attributes"
      },
      "revokeDelegate(address,bytes32,address)": {
        "details": "Revoke a delegate (requires authorization)"
      },
      "setAttribute(address,bytes32,bytes,uint256)": {
        "details": "Set an attribute for a DID   PUBLIC FUNCTION - Anyone can set attributes  Why this is safe: - Attributes are just claims/attestations - Anyone can make a claim about anyone (like Twitter mentions) - The important part is WHO made the claim (msg.sender is recorded in events) - Verifiers check if they trust the attribute setter - Only the identity owner can REVOKE attributes  Use cases: - User sets their own public key - University sets a degree attribute for a student - Employer sets employment attribute - Government sets citizenship attribute"
      },
      "setAttributeSigned(address,uint8,bytes32,bytes32,bytes32,bytes,uint256)": {
        "details": "Set attribute via signature (meta-transaction) Allows the identity owner to authorize attribute setting via signature This is useful when the owner wants to set attributes but someone else pays gas"
      },
      "validDelegate(address,bytes32,address)": {
        "details": "Check if a delegate is valid"
      }
    },
    "title": "EthrDIDRegistry",
    "version": 1
  },
  "userdoc": {
    "kind": "user",
    "methods": {},
    "version": 1
  }
}